:100000000C9419030C9436030C9436030C94FB29BE
:100010000C9436030C9436030C9436030C9436037C
:100020000C9436030C9436030C94D1120C9487175D
:100030000C943E230C9436030C9436030C94360334
:100040000C9436030C9436030C9436030C9436034C
:100050000C9436030C94AA130C9436030C943603B8
:100060000C9436030C9436030C9436030C9436032C
:100070000C9436030C9436030C9436030C9436031C
:100080000C9436030C9436030C9436030C9436030C
:100090000C9436030C9436030C9436030C943603FC
:1000A0000C9436030C9436030C943603165C14003F
:1000B0001A000800150017002B000462166107647F
:1000C00009680A00E1001D001B0006001900050078
:1000D000000000000000045135412C002A001300EC
:1000E00012000C0018001C00340033720F710E74E3
:1000F0000D780B00E50038003700360010001100C5
:10010000000000000000E6004C422800165C1E00C3
:100110001F002000210022002B00F100FB00FA004C
:10012000F900FC00E100F200EF00EE00ED00F0004D
:10013000000000000000E30001002C002A0027005E
:10014000260025002400230000004F00520051002B
:1001500050005000E50000004D004B004E004A00EA
:10016000000000000000E6004C432800165C1E0260
:100170001F022002210222022B0033623361366407
:1001800037683900E10000000000000000000000B6
:10019000000000000000E30003512C002A002702A9
:1001A00026022502240223023500310030002F00F0
:1001B0002E002D003502310230022F022E022D02B8
:1001C000000000000000E60001002800005C0000C4
:1001D0000000000000000000C35CC65CC85CCA5C94
:1001E00000000000C45CC75CC95CCB5C0000000080
:1001F000000000000000E30001002C0000000000EF
:1002000000000000000000000000000000000000EE
:1002100000000000000000000000000000000000DE
:10022000000000000000E6000100280029003A005C
:100230003B003C003D003E002B003F0040004100E1
:1002400042004300E10044004500460049004C00E4
:10025000000000000000010000002C002A005700F0
:100260002600250024005400370036002300220019
:10027000210055005800670020001F001E00560096
:1002800000000000000000002700280000DA0281C2
:10029000FFD9F1DB20A4A62EAF00A0C000A1C800AA
:1002A000AED580A81FD300408D1420001E0F05007E
:1002B000047F3F1F643214643214783C1E1E140AFB
:1002C0000500010101010101010101020202020216
:1002D00002020202030303030303030304040404EE
:1002E00004040405050505050606060606070707B6
:1002F000070708080808090909090A0A0A0B0B0B6D
:100300000C0C0C0D0D0D0E0E0E0F0F0F1010111109
:10031000111212131314141515161617171818198D
:10032000191A1A1B1B1C1D1D1E1E1F2020212222F4
:10033000232424252626272829292A2B2C2D2D2E37
:100340002F30313232333435363738393A3B3C3D51
:100350003E3F404142434445464748494A4C4D4E42
:100360004F50515354555658595A5B5D5E5F616208
:1003700064656668696B6C6D6F7072737577787A97
:100380007B7D7E8082838587888A8C8E8F919395F2
:1003900096989A9C9EA0A2A3A5A7A9ABADAFB1B316
:1003A000B5B7BABCBEC0C2C4C6C9CBCDCFD1D4D6F6
:1003B000D8DBDDDFE2E4E7E9EBEEF0F3F5F8FAFD98
:1003C000FFFFAA7F55402223252628292A2C2D2FDE
:1003D0003032333536383A3B3D3E4042434547495B
:1003E0004A4C4E5051535557595A5C5E6062646690
:1003F00068696B6D6F71737577797B7D7F8183859C
:1004000087898A8C8E90929496989A9C9E9FA1A39D
:10041000A5A7A8AAACAEAFB1B3B4B6B8B9BBBCBEC1
:10042000BFC1C2C3C5C6C7C9CACBCCCDCED0D1D23D
:10043000D2D3D4D5D6D7D7D8D9D9DADADBDBDBDC3F
:10044000DCDCDCDCDDDDDDDDDCDCDCDCDCDBDBDBEB
:10045000DADAD9D9D8D7D7D6D5D4D3D2D2D1D0CE4B
:10046000CDCCCBCAC9C7C6C5C3C2C1BFBEBCBBB950
:10047000B8B6B4B3B1AFAEACAAA8A7A5A3A19F9ECE
:100480009C9A98969492908E8C8A89878583817F96
:100490007D7B79777573716F6D6B69686664626077
:1004A0005E5C5A5957555351504E4C4A4947454343
:1004B00042403E3D3B3A3836353332302F2D2C2AE0
:1004C00029282625232200AF00AE05010902A1013B
:1004D00085020901A1000509190129081500250156
:1004E0009508750181020501093009311581257FC3
:1004F00095027508810609381581257F95017508D3
:100500008106050C0A38021581257F950175088141
:1005100006C0C005010980A101850319012AB700A1
:10052000150126B700950175108100C0050C090161
:10053000A101850419012AA002150126A002950136
:1005400075108100C005010906A10185060507197E
:10055000E029E715002501950875018102050719B5
:100560000029EF1500250195F07501810205081994
:10057000012905950575019102950175039101C049
:1005800005010906A101050719E029E71500250164
:10059000950875018102950175088101050719000B
:1005A00029FF150026FF009506750881000508192A
:1005B000012905950575019102950175039101C009
:1005C00009023B00020100A0FA0904000001030136
:1005D00001000921110100012240000705810308E3
:1005E00000010904010001030000000921110100BC
:1005F0000122B6000705820320000112010002005B
:10060000000008534601000100010200010C0343F1
:10061000006F0072006E0065000000100366006F3E
:10062000006F007300740061006E00000004030995
:10063000040011241FBECFEFDAE0DEBFCDBF26E0FD
:10064000ACEBB1E001C01D92AF3EB207E1F711E0A3
:10065000A0E0B1E0EEECF9E502C005900D92AC3BF4
:10066000B107D9F70E9465230C94CF2C0C9400009D
:10067000FC01AC014C5F5F4F8FEF91E3219182272A
:1006800028E030E087FF09C0880F89272150310911
:10069000C9F7E417F50791F70895880FF7CFE8ED4C
:1006A000F0E080818E7F80831092E2001092DA0069
:1006B0001092E100A0EEB0E08C9181608C9380817B
:1006C0008F77808319BCA7EDB0E08C918E7F8C93DF
:1006D00080818F7E80831092BD0608952091E40072
:1006E0003091E50095E6A9012091EC00822F817000
:1006F00020FF06C08091E80080FF06C080E00895DA
:100700002091E80022FD1AC08091E206882389F03A
:10071000853089F08091EB0085FD0FC02091E400C9
:100720003091E50042175307F9F29150E1F684E069
:10073000089582E0089583E0089581E00895EF929E
:10074000FF920F931F93CF937C018B010E946E0346
:10075000C82F811117C08091E80085FD0BC08091E2
:10076000E8008E778093E8000E946E03882399F357
:10077000C82F08C0F70181917F018093F1000150DB
:10078000110949F78C2FCF911F910F91FF90EF9096
:1007900008958091E40687FF13C08091E80082FFEE
:1007A00006C08091E8008B778093E80004C08091B8
:1007B000E2068111F2CF08958091E2068823D9F3F1
:1007C0008091E80080FFF8CF8091E8008E77ECCF31
:1007D000982F9093E900242F762F50E0891731F05D
:1007E0007091EC002091ED005091F00021FD07C0C8
:1007F0009F5F973071F78093E90081E00895309111
:10080000EB003E7F3093EB003091ED003D7F309365
:10081000ED003091EB0031603093EB007093EC0011
:100820002093ED005093F0002091EE0027FDE0CFE3
:1008300080E00895B0E0A0E0E0E2F4E00C94352B15
:10084000C8EDD0E088818F7E8883E7EDF0E080817D
:100850008160808384E082BF81E08093BD068881CF
:100860008E7F888302EE10E0F80110821092DA0089
:1008700081EEC82ED12CF601108288818F77888373
:1008800088818068888388818F7D888319BC1092D5
:10089000E2061092E3061092E1061092E00690EE56
:1008A000E92EF12CF70180818B7F80838881816024
:1008B000888342E060E080E00E94E803F6018081E6
:1008C0008E7F8083F8018081816080838081886051
:1008D0008083F70180818E7F808388818061888317
:1008E000CDB7DEB7E8E00C94512BFC018091EA060D
:1008F0009091EB0686179707A0F06115710529F412
:100900009091E8009E779093E80090E06115710562
:1009100051F4911108C08091E80082FF34C080E05A
:100920000895BC01F2CF8091E2068823C1F18530A1
:10093000C1F18091E80083FD30C08091E80082FD24
:10094000EACF8091E80080FFE1CF8091F300209111
:10095000F200382F6115710519F02830310558F073
:1009600091E02830310509F090E02091E8002E77E1
:100970002093E800CBCF81918093F1006150710901
:100980002F5F3F4FE7CF8091E206882341F085300B
:1009900041F08091E80083FFBECF81E0089582E0BE
:1009A000089583E0089508958091BF06089587E72C
:1009B00097E7909301088093000888E19AE00FB6CA
:1009C000F894A895809360000FBE90936000FFCFCD
:1009D0002FB7F8946091B4067091B5068091B60671
:1009E0009091B7062FBF089520914B012223C9F0A3
:1009F0002091B80627FF15C0E62FE695E695E69507
:100A0000EE31D8F4E80FF92FF11D677021E030E0E6
:100A100001C0220F6A95EAF720958281282322835C
:100A20000895FC01329608962191621303C0DF01FC
:100A300011971C92E817F907B9F7089520914B0117
:100A40002223C1F02091B80627FF14C0E62FE695B7
:100A5000E695E695EE31F8F4E80FF92FF11D677091
:100A600021E030E001C0220F6A95EAF78281822BF3
:100A700082830895FC0132962FEF30E04191641794
:100A800051F02F3F19F4411101C0232F3F5F363041
:100A9000A9F72F3F09F40895820F911D27FD9A951C
:100AA000FC01628308952091B1063091B2062817A7
:100AB000390771F09093B2068093B106E091AF06CA
:100AC000F091B006309721F00084F185E02D099572
:100AD00008952091AD063091AE062817390771F0C0
:100AE0009093AE068093AD06E091AF06F091B0060C
:100AF000309721F00680F781E02D09950895FA01DD
:100B0000811101C0FB01099508950895ECEEF4E010
:100B1000118282818460828308958091A206982F39
:100B20009E7F61F4817082608093A2068091A50609
:100B3000893718F088E78093A50608958635B0F3C5
:100B400081708465F1CFAF92BF92DF92EF92FF92F6
:100B50000F931F93CF93DF93182F062FE901493787
:100B600008F048E7E42FF0E0EF53FD4F011110C00B
:100B7000E4915E2F4E2F4983E8835A83DF91CF9112
:100B80001F910F91FF90EF90DF90BF90AF9008956D
:100B9000202F30E04491D42EE42EF12C56E0159F06
:100BA000C0011124EFEFF0E0BF010E94172B812F4D
:100BB00090E0880F991F55E5569FD001579FB00DC3
:100BC00011248A1B9B0B982F990F890F5F01A21A82
:100BD000B30AAE9CD001AF9CB00DBE9CB00D1124E9
:100BE0005B2F089F80011124012F11275F01A01A9C
:100BF000B10AAE9C8001AF9C100DBE9C100D11245B
:100C00005F01A81AB108A29EC001A39E900DB29EDA
:100C1000900D1124892F9927E81BF90BEE9DC00137
:100C2000EF9D900DFE9D900D1124E92F623071050E
:100C3000A1F050F46115710509F49DCF6130710583
:100C400081F0EB2F512F97CF6430710569F080F060
:100C50006630710509F48FCFF4CFE42F4B2F592F55
:100C60008ACFE42F412F87CFEB2F542F492F83CFEB
:100C70004B2F5D2DE12F7FCF4091E2048D3E59F443
:100C80008091E30487FF0DC01092E30441110BC073
:100C90001092DA0408C08E3E81F48091E3041816A5
:100CA0009CF3442381F08091E4049091E504892B26
:100CB00009F05AC01092D90408958F3E49F447FFB5
:100CC000F0CF1092E2048091E3048111ECCFE0CFE9
:100CD000803F19F41416ACF3E4CF9091E404893FFB
:100CE00029F41916F4F61092E404DBCF8A3F19F4C4
:100CF00097FFD7CFF8CF9091E5048B3F29F497FF6A
:100D0000D0CF1092E504CDCF8C3F19F41916CCF357
:100D1000C8CF9FE0980F983090F4815F990B21E045
:100D200030E0B90102C0660F771F8A95E2F7CB0168
:100D300080959091E10489238093E104B2CF8D3FA7
:100D400031F48091DB048E7F8093DB04AACF8E3F49
:100D500021F48091DB048D7FF7CF8F3F09F0A1CF85
:100D60008091DB048B7FF0CF08958091DB0480FDC0
:100D700016C081FD16C082FD16C08091D90488235B
:100D8000A1F0883280F428E0829FC001112468E23B
:100D900070E00E947C2B862F672B39F0089582E04B
:100DA000089584E0089588E0089581E00895809191
:100DB000DB0480FD14C081FD14C082FD16C080914B
:100DC000DA04882381F08E3180F420E5829FC0010F
:100DD00011246EE170E00E947C2B862F089584E13F
:100DE000089588E2089588E0089580E508958D3E8D
:100DF00031F40E94D70681958093E30408958E3ED6
:100E000019F40E94D706F8CF8F3E31F40E94D7061E
:100E100081958093E2040895803F19F40E94D706DB
:100E2000F8CF893F29F40E94B5068093E404089521
:100E30008A3F21F40E94B5068195F7CF8B3F31F4AC
:100E40000E94B50681958093E50408958C3F19F4BE
:100E50000E94B506F8CF9FE0980F983070F4815F3C
:100E6000990B21E030E001C0220F8A95EAF78091CA
:100E7000E104822B8093E10408958D3F31F4809149
:100E8000DB0481608093DB0408958E3F21F4809120
:100E9000DB048260F7CF8F3FB9F78091DB04846079
:100EA000F1CF80E00895F894E82FE295EF70F0E03C
:100EB00031A1282F2F7081E090E001C0880F2A9582
:100EC000EAF7982F9095932391A392A1892B82A35F
:100ED000789408959091B80692FF06C0282F287143
:100EE0002830F9F4877F846093FF06C0282F28718B
:100EF0002831F1F4877E84612091B90620FF06C075
:100F0000382F38713830D9F4877F816021FF06C0CF
:100F1000282F28712831D1F4877E816194FD877E46
:100F20000895282F24712430F9F68B7F8860DCCF58
:100F3000282F2471243101F78B7E8861DDCF382F73
:100F40003171313019F78E7F8860E0CF282F217101
:100F5000213121F78E7E8861E1CF972F7830A8F478
:100F6000663098F470E026E0929F600D711D1124A8
:100F7000FB0190E3899FE00DF11D1124EE0FFF1F8F
:100F8000E455FF4F85919491089580E090E0089595
:100F9000CF93DF93EC0182389105A9F1D8F5813325
:100FA000910509F496C048F58932910509F48AC083
:100FB0008A9709F495C0C11521E5D20708F0BCC095
:100FC000C11530E5D30708F014C1C83ED10508F0BB
:100FD0009CC0C13ED10560F5C83AD10508F087C074
:100FE000C53AD10508F0FDC0C130D10509F12097FF
:100FF000F9F0C430D105E0F440C08533910509F41F
:101000005AC0C997C1F68091B806837089F0C0EEC6
:10101000D0E00EC0833E910599F170F4803E9105B9
:1010200001F1823E910539F68091B80682FD21C01A
:10103000CE01DF91CF910895863E910561F1873E03
:10104000910571F1843E910509F0B5CF8091B90603
:1010500081FFEECF8091B806C7EED0E084FD0DC0D1
:10106000E7CF8091B80680FD12C19091B90690FF3C
:10107000DFCFC3EED0E084FFDBCFD0E0C0E0D8CF3D
:101080008091B80682FD06C19091B90690FDBFCF50
:1010900084FFCECFF2CF8091B80683FDDDCFC8CFDD
:1010A0008091B80683FDF9C09091B90691FFF0CF09
:1010B000C4EED0E0BDCF8091B80685FFB9CFC9E2BC
:1010C000D0E0B6CF8091B80685FFB2CFC5E3D0E0BF
:1010D000AFCF8091B80686FFABCFCAE2D0E0A8CFF1
:1010E0008091B80686FFA4CFC1E3D0E0A1CFCF3B6B
:1010F000D10518F6C85AD0E0CC0FDD1FC15BDE4F1A
:101100000990D881C02DD46493CFC11540E2D40793
:1011100058F4C11581E0D80708F08ACFCD3ED1053B
:1011200008F4ABCFD06584CFC11590E4D90708F49B
:10113000A4CFDF70D06A7CCFC11525E5D20700F5BA
:10114000C11534E5D30708F08AC0C11543E5D407BB
:1011500008F071C0C11582E5D80708F467C0CE0158
:101160008370992721E030E002C0220F331F8A9557
:10117000E2F7C695C69580E2C89FE001112452C0EF
:10118000C11599E5D907A8F4C11528E5D20708F0DB
:101190006BC0C11536E5D30708F06FCF8C2F0E94C6
:1011A0006A07C82FD0E0DC2FCC27CC27DF71D062B4
:1011B0003FCFC1154AE5D40708F45BC0CE01905675
:1011C0008115904208F059CF8D2F8F710E946A07C8
:1011D00090E0982F882788279F719C012C2BE9018C
:1011E000E6CFC55AD0E0C45BDE4FC881D0E0D06402
:1011F0001FCFCE01E4E096958795EA95E1F78370DD
:101200002C2F26952695237040E2249F90011124CF
:10121000382B8C2F8370C1E0D0E002C0CC0FDD1FD3
:101220008A95E2F7C22BD32BDC6802CFDC2FCC27C8
:10123000C16FD06AFDCECE018370992721E030E0E6
:1012400002C0220F331F8A95E2F7C695C69590E239
:10125000C99FE0011124C22BD32BDA68E9CEDC2F21
:10126000CC27C46FD06AE4CEDC2FCC27C06FD06A05
:10127000DFCE8C2F8F700E946A0734E0D695C79519
:101280003A95E1F7CF709C2FEC01D069D1CEC9E33C
:10129000D0E0CECEC2EED0E0CBCEC6EED0E0C8CE0F
:1012A0008091580281111092580208958095909172
:1012B0005702982390935702089580913402909199
:1012C0000302981301C008958F5F8770FACFB0E0D2
:1012D000A0E0EDE6F9E00C94342B8C01C09098026C
:1012E000D0909902E0909A02F0909B02809159026E
:1012F00090915A02A0915B02B0915C02C82AD92A4F
:10130000EA2AFB2ACFE1D0E0BC2ED701C6010C2E81
:1013100004C0B695A795979587950A94D2F780FD56
:1013200009C0219788F7B12C8B2DCDB7DEB7E9E046
:101330000C94502BB8018C2F0E94AD070E94C80757
:10134000019779F3F1CFCF93DF93EC010E94670906
:10135000BE010E94AD070E94C807DF91CF9108959A
:10136000292F983080F5863070F590E036E0239F85
:10137000800D911D1124682F677023E09695879545
:101380002A95E1F725E0289FF001299FF00D11240F
:10139000E152FE4F50E040E080E0219130E0062E27
:1013A00002C0369527950A94E2F721703327042E60
:1013B00001C0220F0A94EAF7822B4F5F5F4F45303E
:1013C000510559F7089580E00895292F9830A0F528
:1013D000863090F590E036E0239F800D911D11241A
:1013E000282F277041E001C0440F2A95EAF723E037
:1013F000969587952A95E1F725E0289FF001299F8A
:10140000F00D1124E152FE4F30E020E070E05191E8
:10141000DF011197CB01022E02C0969587950A94A1
:10142000E2F7817081958527842385278C932F5F30
:101430003F4F2530310559F70895FC018081918196
:101440000E94A30992959F70963091F058F4925F94
:101450009F70923058F4803F19F030F4883E30F499
:1014600081E008959A5FF4CF843FD1F380E008953E
:10147000883EB0F3813FD1F7F3CF8093BA067093E3
:10148000BC066093BB068091E206843001F582E0E1
:101490008093E9008FEF9091E800815095FD06C0A0
:1014A00095ED9A95F1F700008111F5CF8091E80054
:1014B00085FF0DC050E040E063E070E08AEB96E00D
:1014C0000E949F038091E8008E778093E800089542
:1014D000BC0184E00E943D0A0895BC0183E00E94A3
:1014E0003D0A08959C0182E08093E9009FEF80917E
:1014F000E800915085FD06C085ED8A95F1F7000062
:101500009111F5CF8091E80085FF0CC050E040E0DC
:1015100066E070E0C9010E949F038091E8008E7729
:101520008093E8000895CF93DF93EC0180914B0105
:101530008823B1F18091B80687FF32C060E282E073
:101540008093E9008FEF9091E800815095FD06C0EF
:1015500095ED9A95F1F700008111F5CF8091E800A3
:1015600085FF1BC080914B0170E050E040E081118D
:1015700004C050E040E068E070E0CE010E949F03AC
:101580008091E8008E778093E80080E2FE01A0EC75
:10159000B6E001900D928A95E1F7DF91CF91089521
:1015A00068E081E0CDCF609147018091A20680FF85
:1015B00020C08091460143E0849FC00111248E50D9
:1015C0009B4F539A2BB1277F3BB138605FB7F8949C
:1015D000FC01649FE00DF11D1124BF01681779071C
:1015E000D1F45FBF8FE594E00197F1F700C00000F0
:1015F0000895809148019091490123E0829FF00174
:101600001124EE50FB4F8917A0F61182108212822E
:101610008F5F3396F8CFFC014191CF01E8E03BB9F1
:10162000000000C047FF2BB9440F000000C000C0FD
:1016300000C02BB900C0EA9591F7D0CF0F931F934C
:10164000CF93DF93EC0110E000E090914A019017F6
:10165000110609F06CF40E94D30A8C8190E0019687
:10166000817099278C83DF91CF911F910F910895FD
:1016700020914801A801420F511D9A01220F331FEA
:10168000240F351F2E503B4F4C816091A406809152
:10169000A30696959017110651F04CF0442349F09B
:1016A0004091A5060E94A3050F5F1F4FCECF442394
:1016B000B9F340E0F7CFB0E0A0E0E1E6FBE00C9446
:1016C000312BEC014C81042F10E09801D8010E94CD
:1016D000C02C9B01AC010E948B2C4B015C01E0E211
:1016E000F0E0E01BF10BA5E5B0E0AC019B010E942E
:1016F0008B2C6B017C019F01DF010E94962B9B01CB
:10170000AC010E94962C9B01AC01280D391D4A1D8D
:101710005B1DC701B6010E949E2CF22E822F90E025
:1017200039E23F1520F143E0249F900111243595C3
:101730002795122F109500E085E5E82EEF1880918F
:101740004A01081718F10E94D30A9C8181E099236D
:1017500019F0903219F48FEF809345018091450183
:10176000890F8C83CDB7DEB7ECE00C944D2B25E5CB
:1017700030E0B901681B790B9B01220F331F260F44
:10178000371F37FFD4CF2F5F3F4FD1CF8E2D01FDB5
:101790008F2D20914801622F600F7727771F9B01C3
:1017A000220F331F260F371F2E503B4F412F6091C2
:1017B000A4060E94A3050F5FC2CFEF92FF920F9382
:1017C0001F93CF93DF93EC018C81811109C081E0DD
:1017D0008C831092F00492E0909344018093430133
:1017E000809148019091490123E0829FF0011124EA
:1017F000EE50FB4F891758F110E003E060914A0169
:10180000161758F10E94D30A809143012091F004E9
:10181000280F2093F00490914401980F9093440175
:10182000191654F4022E000C330B40914A0141501A
:10183000550B2417350734F081958093430181308F
:1018400009F41C82CDB7DEB7E6E00C94532B11826D
:10185000108212828F5F3396CDCFE12EF12C70E093
:10186000C7010E947C2B20914801820F482F50E035
:101870002091F004022E000C330BE216F306BCF0AC
:1018800020914401022E000C330B2E153F057CF0F5
:10189000809F900111242E503B4F4091A5066091EE
:1018A000A4068091A3060E94A3051F5FA7CFFA019B
:1018B000EE0FFF1FE40FF51FEE50FB4F1182108259
:1018C0001282F3CFB0E0A0E0E8E6FCE00C94312B0C
:1018D000EC018A81BB24BA9480FD02C0BB24B3947E
:1018E000A0904A018C81811109C081E0B81220C00A
:1018F0008FEF8A0D8093EF0481E08C83F12CE12C33
:1019000046E3942EEA14B8F00E94D30A8091EF04C3
:1019100091E0B91257C0811150C080914A018150A5
:101920008093EF041C82CDB7DEB7ECE00C944D2B16
:101930001092EF04E1CF009148010E0D1F2D111DF3
:10194000C801880F991F080F191F0E501B4FF8016F
:1019500011821082128234E0C32ED12C812C80910E
:10196000EF04880D87332CF1692D0E946E2B892F8F
:10197000082E000C990B8E159F0591F48091A506F9
:101980008C9DA0018D9D500D112455954795559521
:10199000479598016091A4068091A3060E94A30533
:1019A0008B0CF1E0CF1AD108D1F68FEFE81AF80AC4
:1019B000A9CF87FFDDCF8A0DDBCF81508093EF0465
:1019C000BC82B1CF90E0019660914A0170E00E9424
:1019D0007C2B8093EF048C83A6CFEF92FF921F9312
:1019E000CF93DF93EC0110E0EE24EA94F12C6091A8
:1019F0004A01161770F00E94D30A9A818C8190FFD9
:101A000027C08F5F8C83DF91CF911F91FF90EF9064
:101A1000089520914801422F410F5527551FCA01B3
:101A20009A01220F331F280F391F2E503B4F70E0B1
:101A3000C7010E947C2B962F8C814091A506609156
:101A4000A406199F800D11240E94A3051F5FCFCF0C
:101A50008150D8CF9091A20690FF0EC0909148017E
:101A60002091490133E0939FF0011124EE50FB4F88
:101A7000921718F00E94D30A0895818360834283ED
:101A80009F5F3396F5CFA3E0B0E0E9E4FDE00C946E
:101A9000392B8C018091F10481110AC09E012F5FC6
:101AA0003F4F48E76FEF0E94A3058A818093F104BE
:101AB000F8016481613069F08091F10440E06623AF
:101AC00061F040E0623011F44091F10480E060E0A8
:101AD00004C06091F10440E080E00E942A0DF8010A
:101AE000848190E0019663E070E00E947C2B848307
:101AF0002396E4E00C94552BA3E0B0E0E2E8FDE08F
:101B00000C943B2B9091A20690FF0AC09E012F5F80
:101B10003F4F0E94A3054B8169818A810E942A0D53
:101B20002396E2E00C94572BCF93DF93EC01E2EA8B
:101B3000F6E0438162818C810E947C0D8C818F5FF5
:101B40008C83DF91CF910895CF93DF93EC01EC81EB
:101B5000F0E0EA53FC4F4491E2EAF6E062818181D1
:101B60000E947C0D8C818F5F8C83DF91CF910895D3
:101B7000B0E0A0E0EEEBFDE00C94332B7C015B01C8
:101B80006A018091890201E010E08A3010F40AE0D5
:101B900010E0C1E0D0E0B501C701F601099581115F
:101BA00004C021960C171D072CF4CDB7DEB7EAE070
:101BB0000C944F2BCC9F9001CD9F300D300D1124F4
:101BC00090E080E045E34A95F1F700000196821726
:101BD0009307C1F7E0CF80916702811110C0809117
:101BE000D80080618093D8008AE18A95F1F700C01F
:101BF0008091D90080FF0AC081E08093670281E074
:101C000090916702913009F080E0089582E080931E
:101C100067020E944F031092E206F1CF0E94EB0D83
:101C2000882359F0E091AF06F091B006309729F083
:101C30000190F081E02D0995089580E008950F93BB
:101C40001F930E94EB0D882329F00E94E8041F9146
:101C50000F9108950E94E80400918A0210918B026E
:101C600020918C0230918D02600F711F821F931F93
:101C7000EECFB0E0A0E0EFE3FEE00C94352B6C017A
:101C80007B0164E670E088E70E947228EC0197FD12
:101C900012C010E000E0F601E00FF11F849164E64D
:101CA00070E00E94E028EC01892B29F40F5F1F4FA0
:101CB0000E151F0581F70E945729CE01CDB7DEB75B
:101CC000E8E00C94512B8091AB069091AC069111F9
:101CD00003C091E089270895882369F062E070E0ED
:101CE00088EC94E00E94390E892B19F08091AB06A4
:101CF00008951092AB068091AB06EBCFCF93C091C5
:101D0000AB068091AC068823D1F00E94E804605AAB
:101D100075418F4F9F4F6093A7067093A8068093DD
:101D2000A9069093AA06C11108C062E070E086EC93
:101D300094E00E94390E892B29F0C091AB068C2FBC
:101D4000CF91089581E08093AB06F7CFB0E0A0E09B
:101D5000ECEAFEE00C942D2BFC016280448081E0D3
:101D60008483E6ECF3E07490E5E4F4E0E491812C04
:101D700075E0972EF2E0CF2EDD24D394AA24AA9406
:101D8000B12C55245A94E7190E2F10E080914A0186
:101D9000881638F00E94D30ACDB7DEB7E0E10C9484
:101DA000492BE82CF12C82E0861568F09E9CF0010E
:101DB0009F9CF00D1124EC56FA4F8091A30680836E
:101DC0008091A4068183411023C09E9CF0019F9CBA
:101DD000F00D1124EC56FA4F138212822091480123
:101DE000C701820F911D9C01220F331F280F391F3D
:101DF0002E503B4F9E9CF0019F9CF00D1124EC5601
:101E0000FA4F4281618180810E94A3058394BECFF5
:101E10009E9CE0019F9CD00D1124CC56DA4F8B8103
:101E20008823E9F081508B83859DC00111246C814A
:101E300070E00E94172BFB01FF27EA53FC4F8491AF
:101E4000E82FE719E59DC0011124B8010E94172B66
:101E50008091A506689FB00111247A83BFCF0E94AC
:101E6000F12B2091A506269521582C9DA0012D9D92
:101E7000500D1124452F5527841795070CF0AECF30
:101E800082E0861588F40E94F12BB5010E947C2B1C
:101E900088830E94F12B2091A4062695622F70E082
:101EA0000E947C2B280F29839E9CF0019F9CF00DA3
:101EB0001124EC56FA4F12828091A506893C58F005
:101EC00088EC9E9CF0019F9CF00D1124EC56FA4F7B
:101ED0008483838383CF8431A0F784E1F2CFCF92D0
:101EE000DF92EF92FF926B017C010E948D05B7019A
:101EF000A60188E090E00E944A2CFF90EF90DF90CE
:101F0000CF900895A3E0B0E0E8E8FFE00C94342B14
:101F1000082FD62EF42EC22E9091A20690FF3AC022
:101F2000E92FE695AE2FB0E0AF56BE4F8C9180936F
:101F3000EC049E7F923091F59E012F5F3F4F802FE2
:101F40000E94A3054B8169818A810E942A0D80919C
:101F5000A306801308C08091A4068D1104C080914F
:101F6000A5068F1529F08091EE0482608093EE041F
:101F70000093A306D092A406F092A506CC2051F0BF
:101F80006091A2067091A3068091A4069091A50687
:101F90000E946F0F2396E9E00C94502B823019F4C5
:101FA000F090A506D4CF863019F40091A306CFCFC8
:101FB0008930D9F3893159F6E9516E2F6170B62E07
:101FC000E695F0E0EF53FC4F1491E12C60914A014B
:101FD000E61618F00E94D30ABACFE19EC001112480
:101FE00070E00E94172B802FB11014C0860F209133
:101FF0004801622F6E0D7727771F9B01220F331F39
:10200000260F371F2E503B4F4F2D6D2D0E94A305DD
:10201000E394DCCF861BEBCFE2EAF6E0438121E1DB
:10202000421B08F440E021E0628181810E94820F1E
:102030000895E2EAF6E0438121E1420F08F44FEF10
:1020400021E0628181810E94820F0895E2EAF6E038
:10205000628121E1621B08F460E021E0438181811B
:102060000E94820F0895E2EAF6E0628121E1620FA8
:1020700008F46FEF21E0438181810E94820F08956F
:10208000E2EAF6E0818121E0438162818A500E9488
:10209000820F0895E2EAF6E0818121E043816281C6
:1020A000865F0E94820F08958091A606882319F00A
:1020B00081508093A6066091A2067091A30680913C
:1020C000A4069091A5060E946F0F08958091A60620
:1020D000833018F48F5F8093A6066091A2067091FA
:1020E000A3068091A4069091A5060E946F0F089503
:1020F000E2EAF6E083E0808311828FEF828388E753
:1021000083831482ACEEB4E012968C9112978360B4
:1021100012968C9360817181828193810E946F0FEE
:1021200008958091570290915602892B8093BE01A9
:10213000909158029923A1F0892B8093BE01809140
:102140004B018823E1F18091B80687FF38C08EE10A
:10215000E0ECF1E090E08150A0F591110E9450096F
:1021600040E250E066E372E08EEB91E00E940E2CBC
:10217000892B21F180E2EEEBF1E0A6E3B2E00190E1
:102180000D928A95E1F7E091AF06F091B006309795
:10219000A9F080914B01882359F08091B80687FF00
:1021A00007C08091BE018093BF0186E08093BE018D
:1021B0000280F381E02D8EEB91E00995089586E091
:1021C000C7CF2191222339F29F5FC5CF882321F009
:1021D0000E9456090E9491100895882339F0909129
:1021E0005702982B909357020E9491100895CF9315
:1021F00084E090E00E94242CC82F82E290E00E94AC
:10220000242C982F8C2FCF910895A4E0B0E0EBE020
:10221000F1E10C943A2B409170025091710260915F
:102220007202709173022FB7F8948091B406909166
:10223000B506A091B606B091B7062FBF841B950BCB
:10224000A60BB70B11E084369105A105B10570F11D
:102250000E941F0E6E5F7F4F8F4F9F4F69837A835F
:102260008B839C8380911501909116018C589D4F12
:102270004091140150E04530510510F044E050E029
:10228000BE016F5F7F4F0E941B2C82E090E00E9496
:10229000A12A182F882351F00E94E804609370024D
:1022A000709371028093720290937302812F24962F
:1022B000E3E00C94562BA8E0B0E0E1E6F1E10C94E9
:1022C0003B2B85E0E2EAF6E0DE01119601900D92EB
:1022D0008A95E1F78091EC049091ED04A091EE04D1
:1022E0008E839F83A887288540918502509186021E
:1022F00060918702709188023FB7F8948091B4068C
:102300009091B506A091B606B091B7063FBF841B69
:10231000950BA60BB70B84369105A105B10510F4FA
:10232000222319F180911D0190911E018C589D4F1F
:1023300040911C0150E04930510510F048E050E058
:10234000BE016F5F7F4F0E941B2C83E090E00E94D4
:10235000A12A882369F00E94E804609385027093A3
:10236000860280938702909388021092EE0481E0A7
:102370002896E2E00C94572BEF92FF921F93CF9395
:10238000DF9300D000D00F92CDB7DEB77B0190E095
:1023900080E00E94A12A182F882309F487C0409169
:1023A000070150E04115510511F041E050E0609106
:1023B0000801709109016C587D4FCE0105960E946D
:1023C0001B2C40916C0250916D0260916E027091D5
:1023D0006F022FB7F8948091B4069091B506A09142
:1023E000B606B091B7062FBF841B950BA60BB70B93
:1023F00084369105A105B10540F485E792E00E947D
:1024000038039D81891709F451C081E090E00E9452
:10241000A12A81111AC010E080916802909169028E
:10242000A0916A02B0916B02F70180839183A2832D
:10243000B383812F0F900F900F900F900F90DF912B
:10244000CF911F91FF90EF90089540910F0150E0C0
:102450004530510510F044E050E06091100170915A
:1024600011016C587D4FCE0101960E941B2C85E70F
:1024700092E00E9438039D818913CDCF0E94E80429
:1024800060936C0270936D0280936E0290936F0262
:1024900089819A81AB81BC818093680290936902A3
:1024A000A0936A02B0936B0211E0B6CF80917502DF
:1024B00090917602A0917702B091780289839A83F5
:1024C000AB83BC831111E4CFA7CF68EE7EEF90E021
:1024D00080E00E94562C60E082E090E00E94382C60
:1024E00060E083E090E00E94382C10925902109234
:1024F0005A0210925B0210925C0260E084E090E06D
:102500000E94382C64E082E290E00E94382C60E067
:1025100085E090E00E94382C60E086E090E00E9428
:10252000382C6FEF87E090E00E94382C40E050E0BC
:10253000BA0188E090E00E944A2C60E08DE090E0D3
:102540000E94382C40E050E0BA0188E190E00E94FF
:102550004A2C60E087E190E00E94382C40E050E097
:10256000BA018CE190E00E944A2C70E060E080E2C9
:1025700090E00E94562C40E050E0BA0188E190E0E3
:102580000E944A2C40E050E0BA018FE090E00E94A7
:102590004A2C40E050E0BA0183E190E00E944A2CCE
:1025A00008951F920F920FB60F9211242F933F930D
:1025B0004F935F936F937F938F939F93AF93BF934B
:1025C000EF93FF938091E10082FF09C08091E200C8
:1025D00082FF05C08091E1008B7F8093E1008091B4
:1025E000DA0080FF24C08091D80080FF20C0809155
:1025F000DA008E7F8093DA008091D90080FF9DC041
:1026000080E189BD82E189BD09B400FEFDCF81E092
:102610008093E2068091BD06811109C00E944F039C
:102620000E941A048091E20084608093E20080910D
:10263000E10080FF17C08091E20080FF13C080910D
:10264000E2008E7F8093E2008091E20080618093BF
:10265000E2008091D80080628093D80019BC85E0A8
:102660008093E2068091E10084FF2BC08091E2001C
:1026700084FF27C080E189BD82E189BD89B5982F9B
:10268000917080FFFBCF8091D8008F7D8093D80020
:102690008091E1008F7E8093E1008091E2008F7E47
:1026A0008093E2008091E20081608093E20080915B
:1026B000E306882309F447C084E08093E206809112
:1026C000E2068091E10083FF27C08091E20083FF52
:1026D00023C08091E100877F8093E10082E08093B6
:1026E000E2061092E3068091E1008E7F8093E10084
:1026F0008091E2008E7F8093E2008091E200806111
:102700008093E20042E060E080E00E94E803809174
:10271000F00088608093F000FF91EF91BF91AF913E
:102720009F918F917F916F915F914F913F912F91E9
:102730000F900FBE0F901F90189519BC1092E206D3
:102740001092BD0674CF8091E30087FD93E09093D3
:10275000E206B5CF78941F921FB61F9211248F9373
:102760009F93AF93BF938091B4069091B506A091CB
:10277000B606B091B7060196A11DB11D8093B406AF
:102780009093B506A093B606B093B706BF91AF91EC
:102790009F918F911F901FBE1F9018959C014FB75E
:1027A000F8948091B4069091B506A091B606B091C8
:1027B000B7064FBF821B930B08952FB7F8948091F3
:1027C000B4069091B506A091B606B091B7062FBF9A
:1027D00008950E94DD139C019091E2048091E3042E
:1027E000982B21F03093DF042093DE049091E404D1
:1027F0008091E504982B21F03093DD042093DC04D4
:10280000E091AF06F091B006309749F082E08093F6
:10281000E0040480F581E02D80EE94E009950895B0
:1028200090E080E00E94690590E080E00E945305FE
:10283000109256020E94911086E0E0EEF4E0DF0173
:102840001D928A95E9F71092DA041092D904109239
:10285000DB040E94E9130895609398027093990233
:1028600080939A0290939B020E94101408950F93F4
:102870001F9341E050E060E070E004C0440F551F3A
:10288000661F771F8A95D2F7CB01BA0160957095C4
:1028900080959095009198021091990220919A024A
:1028A00030919B0260237123822393230E942C1476
:1028B0001F910F91089590913502809589238093FF
:1028C0003502282F277091F4282F082E000C330B87
:1028D0009217130659F09091B90692FF07C085959B
:1028E000859585950E943714109235020895CF93EF
:1028F000C091B906C2FB992790F9981791F080FB17
:10290000C2F9C093B9066091B80684E090E00E94D5
:10291000382C6C2F82E290E00E94382C82E00E94DA
:102920005B14CF9108950F931F9341E050E060E056
:1029300070E004C0440F551F661F771F8A95D2F7B9
:102940008091980290919902A0919A02B0919B0275
:102950008A019B01082B192B2A2B3B2BC901B8019B
:102960000E942C141F910F91089560935902709347
:102970005A0280935B0290935C020E9410140895A7
:102980001092570280914B01E0ECF1E0882361F056
:102990008091B80687FF08C08EE1DF011D928A95FD
:1029A000E9F70E941014089586E0F7CFAAE2B0E09C
:1029B000ECEDF4E10C943A2B84EE96E02091F100DA
:1029C000FC012193CF01F6E08C3E9F07B9F780917F
:1029D000E506833009F470C0B8F4813009F447C0CB
:1029E000823009F4B1C08091E80083FF7EC28091FB
:1029F000E4069091E5069A3008F077C2E92FF0E0FE
:102A0000EF52F34D0C94902B8A3009F48CC08B302C
:102A100009F46FC0893039F78091E406813219F7E3
:102A20008091E8069091E9060297E8F68091E80027
:102A3000877F8093E8008091E80082FF38C0909102
:102A4000F3008091F200029731F48091F10081301F
:102A500011F0863021F48091F1008093BF068091BF
:102A6000E8008B778093E8000E94C903BCCF809177
:102A7000E406813A09F0B7CF8091E800877F809320
:102A8000E8008091E8069091E906892B61F460E204
:102A900080EC96E070E00E9475048091E8008B77EE
:102AA0008093E800A0CF60E090E080E0F3CF8091D9
:102AB000E2068111C0CF97CF8091E406813A09F0F8
:102AC00092CF8091E8069091E906892B09F08BCF8F
:102AD0008091E800877F8093E8008091E80080FF84
:102AE000FCCF80914B018093F1008091E8008E77BC
:102AF000B9CF8091E406813209F075CF8091E80664
:102B00009091E906892B09F06ECF8091E800877FCC
:102B10008093E8000E94C9038091E60680934B01F0
:102B20000E94C01460CF8091E406813209F05BCF2F
:102B30008091E800877F8093E8000E94C90380911C
:102B4000E7068093BE064FCF8091E406813A09F0F4
:102B50004ACF8091E800877F8093E8008091E80069
:102B600080FFFCCF8091BE06BECF803899F08238BE
:102B700009F0BBC18091E8068F70873008F0B5C1BD
:102B80008093E9008091EB0085FB882780F9109203
:102B9000E90006C08091E0069091E1069111826003
:102BA0009091E800977F9093E8008093F100109255
:102BB000F1008091E8008E7794C1882309F482C1E6
:102BC000823009F092C18091E606811185C1809121
:102BD000E8068F702FEF280F263008F086C180930B
:102BE000E9002091EB0020FF77C1933031F4809110
:102BF000EB0080628093EB006FC19091EB009061DD
:102C00009093EB0021E030E001C0220F8A95EAF7B3
:102C10002093EA001092EA008091EB008860EACFEE
:102C2000811163C11091E6061F778091E3008078DF
:102C3000812B8093E3008091E800877F8093E800F8
:102C40000E94C9038091E80080FFFCCF8091E300DF
:102C500080688093E30082E0111183E08093E206B4
:102C600044C18058823008F040C18091E6069091BE
:102C7000E7068C3D23E09207A1F583E08A838AE290
:102C800089834FB7F894DE01139620E03EE051E2CD
:102C9000E32FF0E050935700E49120FF03C0E2954A
:102CA000EF703F5FEF708E2F90E0EA30C0F0C79674
:102CB0008D939D932F5F243159F74FBF8091E8008A
:102CC000877F8093E8006AE270E0CE0101960E945F
:102CD00075048091E8008B778093E80006C1C09668
:102CE000E7CF4091E8065091E906292F332723309A
:102CF000310509F444C078F52130310509F46FC07D
:102D00008BE390E0E0ECF5E02230310509F0EDC016
:102D10002091E800277F2093E8002091EA06309177
:102D2000EB068217930708F49C0140E0211531055A
:102D300009F064C0411162C08091E80082FDC9CFF2
:102D40008091E206882329F2853019F28091E8000B
:102D500083FFF2CFBECF21323105A9F122323105F6
:102D600009F0C3C04115510509F443C04130510574
:102D700009F0BBC086EB90E0EAECF4E0C9CF9927FC
:102D800081309105C1F0009759F0029709F0ADC06C
:102D9000EDE0F6E0E4918E2F90E0EDE0F6E007C084
:102DA000EDE2F6E0E4918E2F90E0EDE2F6E00097A0
:102DB00009F49BC0ADCFEBE1F6E0E4918E2F90E0FB
:102DC000EBE1F6E0F4CF4115510571F041305105CA
:102DD00009F08BC089E090E0EBEEF5E099CF82E15D
:102DE00090E0EBEFF5E094CF89E090E0E2EDF5E0E4
:102DF0008FCF80E490E0E0E8F5E08ACF8091E206B2
:102E0000882309F466CF853009F463CF8091E80008
:102E100083FD5FCF8091E80082FD8ECF8091E80036
:102E200080FF84CF9091F3008091F200211531054D
:102E300019F08830910550F041E0089709F040E022
:102E40008091E8008E778093E80070CF44914093A2
:102E5000F1003196215031090196E8CF803809F010
:102E600044C08091E800877F8093E8008091E3066A
:102E70008093F1009ECE811138C01091E606123089
:102E8000A0F58091E800877F8093E8001093E30627
:102E90000E94C903112311F084E005C08091E30072
:102EA00087FDFACF81E08093E20642E061EC81E0A9
:102EB0000E94E80342E261EC82E00E94E803809114
:102EC000E20613C08091E606813079F481E0933008
:102ED00009F080E08093E1061092E9008091E8001B
:102EE000877F8093E8000E94C9038091E80083FFF8
:102EF0000AC08091E800877F8093E8008091EB0012
:102F000080628093EB00AA96E3E00C94562B1F920C
:102F10000F920FB60F9211242F933F934F935F930D
:102F20006F937F938F939F93AF93BF93CF93DF93D1
:102F3000EF93FF93D091E900DF708091EC00C82FF0
:102F4000C17080FDC0E81092E9008091F000877F99
:102F50008093F00078940E94D6141092E90080913A
:102F6000F00088608093F000CD2BCF70C093E90013
:102F7000FF91EF91DF91CF91BF91AF919F918F9191
:102F80007F916F915F914F913F912F910F900FBE65
:102F90000F901F9018950E94C0142FEF84E39CE0BF
:102FA000215080409040E1F700C0000088E19AE0A5
:102FB0000FB6F894A895809360000FBE90936000C0
:102FC000FFCF882391F19CEF980F913A40F4682F3E
:102FD0008EEB91E00E94F4040E949110089590E21B
:102FE000980F983050F4877091E001C0990F8A953E
:102FF000EAF7892F0E945609EFCF9BE5980F93308F
:1030000028F490E080E00E946905089598E5980F03
:10301000973128F490E080E00E94530508958D3E9A
:1030200020F00E943C060E94E9130895CF93C82F18
:103030008823D9F18CEF8C0F813AC8F580914B0130
:10304000882311F18091B80687FF1EC0EC2FE6950A
:10305000E695E695F0E0E254FE4F828190E04C2F39
:10306000477021E030E002C0220F331F4A95E2F79B
:1030700082239323892B91F06C2F8EEB91E00E9499
:10308000F4040E9491100AC0E0ECF1E086EC91E0BB
:103090002191C21789F38E179F07D1F76C2F8EEB02
:1030A00091E00E941E050E949110CF91089580E248
:1030B0008C0F883068F4C77021E030E001C0220F27
:1030C000CA95EAF780915702822B80935702EBCF83
:1030D000EBE5EC0FE33040F4F0E0E45BFE4F808181
:1030E00090E00E946905E1CFE8E5EC0FE73150F48C
:1030F000F0E0EE0FFF1FE15BFE4F808191810E94A7
:103100005305D3CFCD3E88F28C2F0E94F7060E9444
:10311000E913CBCF0F931F93CF93DF93C62FD42FF9
:10312000022FFC0182818823A9F06093EE060E94A1
:10313000DD139093ED068093EC06C77081E001C02B
:10314000880FCA95EAF70E94ED10DF91CF911F9189
:103150000F9108958091EE06681335C08091EC06BA
:103160009091ED060E94CE13883C910560F510E227
:103170001D0FCD17B9F080E28C0F883040F4C77076
:1031800081E001C0880FCA95EAF70E94E610183066
:1031900048F481E09D2F977001C0880F9A95EAF757
:1031A0000E94ED10802F0E941618802F0E94E117B8
:1031B000183058F6D77081E001C0880FDA95EAF729
:1031C0000E94E610C2CFC77081E001C0880FCA9587
:1031D000EAF7F6CF0E94EB0D882319F00E94DD1369
:1031E00008950E941F0ECB0108956091A206669576
:1031F00070E04BE050E088E391E00E94012C892BC5
:1032000019F481E08093ED040E94EA189093E7049A
:103210008093E6048091EE0484608093EE04089528
:103220009091A20690FF31C0917081112FC09260E1
:103230009093A2068091EE0481608093EE04662351
:1032400051F06091A2067091A3068091A40690911E
:10325000A5060E946F0F6091A206669570E04BE094
:1032600050E088E391E00E94012C892BB1F00E948C
:10327000860581E08093E90420E04091A5066091F5
:10328000A4068091A3060E94820F08958B3210F04D
:103290009465CECF880F982BCBCF0E94F518E9CF3D
:1032A0008091A2068695815009F48AE261E00E942D
:1032B000101908958091A20686958F5F8B3208F0D1
:1032C00081E061E00E94101908959091A20690FF9C
:1032D00008C09695981728F0961718F40E945A1966
:1032E000089561E00E9410190895A5E0B0E0EBE7B1
:1032F000F9E10C942D2B7C01FC0183819481892BB5
:1033000031F08081918189238F3F09F0D4C42596C3
:10331000E0E10C94492B0E946709182F682F8981DE
:103320009A810E94E50969817A81812F0E94AD0707
:103330008C01843FFCE59F0709F483C018F5893DA3
:103340009C4509F47AC00A3D8CE5180709F489C048
:10335000083D9CE5190709F526E241EE61EEC7013B
:103360000E948A1880913502877089F2F701828164
:10337000882369F28091B90682FFC9CF82E00E945A
:103380005B14C5CF863FECE59E0709F462C008F4E4
:103390005CC0873F9C4509F460C0F70182818823A7
:1033A00009F49AC41092EE060430FDE51F0708F0F8
:1033B0005BC00B3F2CE5120730F4C80182509C45DE
:1033C000449708F05BC00E94F7109093B906809371
:1033D000B80601319CE5190709F42BC108F0A7C014
:1033E0000930FCE51F0709F40EC108F072C0053072
:1033F0003CE5130709F4FFC008F057C003309CE513
:10340000190709F4EEC008F0F2C08091B806816097
:103410000230FCE51F0709F4E7C06091B80610917F
:10342000B90684E090E00E94382C612F82E290E09F
:103430000E94382C0E94C01495CF27E245EE65EE1D
:103440008ECF26E241EE60EE8ACF27E245EE64EEB3
:1034500086CF26E241EE62EE82CF27E245EE66EEAF
:103460007ECF28E241E0EBCF02363DE5130709F4B9
:10347000AACF063A8DE5180709F4A5CF06312CE549
:10348000120709F037C4809157028A7A91E009F453
:1034900090E09093DE0169E2811165E38EEB91E0AB
:1034A0000E941E050E9491105DCF8091B806806237
:1034B00007302CE5120709F497C08091B8068061A7
:1034C00008303CE5130708F48FC08091B80680648B
:1034D0008BC00D308CE5180709F49FC0A0F48091D3
:1034E000B8068E7F0B30ECE51E0709F47DC0809195
:1034F000B8068C600C30FCE51F0708F475C080919D
:10350000B8068D7F71C08091B8068F7E0F302CE594
:10351000120709F469C08091B806877F00313CE545
:10352000130708F461C08091B8068F7D5DC00E3F1F
:103530008CE5180709F479C058F50531ECE51E074C
:1035400009F481C098F48091B806837F03312CE59B
:10355000120709F449C008F470C00E94C014909189
:10356000B806892F97FB87F980583EC00C3F8CE541
:10357000180709F444C008F054C08091B90681606E
:103580000B3FECE51E0709F048CF8093B90645CF05
:103590000230FDE51F0709F462C090F48091B9067E
:1035A0008C7F01153DE5130781F398F18091B906F1
:1035B000982F909591708E7F892B90FB81F9E5CFA4
:1035C00002369DE5190709F450C0063AEDE51E07DD
:1035D00009F452C00330FDE51F0709F01ECF60E07B
:1035E0003FC08091B80682608093B80616CF809164
:1035F000B8068460F9CF8091B8068860F5CF8091D5
:10360000B9068260C2CF0E94C0148091B80680685B
:10361000EBCF8091B9068360B8CF8091B8068B7FDD
:10362000E3CF8091B9068E7FB0CF8091B9068D7FB0
:10363000ACCF8091B8068F7BD7CF0E94C014809109
:10364000B8068F77D1CF8091B80682FB992790F981
:1036500021E0922790FB82F990FB83F9C5CF61E0CE
:103660008EE090E00E94382CD8CE9091B806892F39
:103670008F7E94FF8061B8CF9091B806892F8E7F9E
:1036800090FF8160B1CF81608093A20661E0869552
:103690000E94101967CE40E559E16AE579E10E9480
:1036A0007F0560CE4AE559E160E579E1F8CF4AE46B
:1036B00050E160E470E1F3CF46E250E163E370E192
:1036C000EECF4CE050E169E170E1E9CF49E150E132
:1036D0006CE070E1E4CF46E650E164E570E1DFCFF5
:1036E00061E081E0D5CF65E082E00E9465193ACEC5
:1036F00068E086E0FACF64E18FE0F7CF67E185E12B
:10370000F4CF62E289E1F1CF61E083E2C1CF0E94B0
:10371000C014EFEFF4E32CE0E150F0402040E1F77B
:1037200000C000000E94D7048091B90682FB882760
:1037300080F991E089270E947714F7018281008146
:103740001181882309F445C0C8010E946709D82E59
:10375000682FC8010E94E509B8018D2D0E94AD07B0
:103760000E94C8078C01882EF701D2809580929420
:103770003FE09322809135028770C1F0BD2CDD209F
:10378000B1F0812F807F803421F080E2800F88307B
:1037900068F08091B90682FF09C082E00E945B1444
:1037A000809135028770BB24B3948111B12CA12E76
:1037B000A2942FE0A222FBE0FA1508F46FC0EA2DD4
:1037C000F0E0E552F34D0C94902B81E0B4CF80E013
:1037D000B2CFC8010E94B009D82EBECF212F2F70C2
:1037E000C22E107F19F0C29490EFC922DD20B9F0EB
:1037F000CC2069F080E2800F883010F0811009C081
:1038000080915702C82AC09257020E949110802FBF
:1038100043C080915602C82AC0925602F6CF802F2C
:103820000E94E117CC20D1F1005E083010F0811029
:1038300004C08C2D0E94560906C0C0948091560287
:10384000C822C09256020E94911028C0312F3F70AA
:10385000C32E107F103219F0C29480EFC822882046
:1038600059F081E0881609F471C0DD2009F47BC0AD
:10387000992009F471C0CBCF2091B90622FD43C035
:10388000DD20D9F1CC2039F080915702C82AC092AE
:1038900057020E94911080E00E941618EA2DE8500D
:1038A000FF0B349710F40E940E0EBB20A9F08091FC
:1038B000350280FD11C0F7011282859585958595A9
:1038C0000E949314C7010E94751980913502859555
:1038D000859585950E94371485E0F701DE011196E4
:1038E00001900D928A95E1F709811A81C8010E9421
:1038F000B009B8010E94AD070ACD80E00E94E1172F
:10390000CC2061F296CFDD20A1F0909158028C2D51
:10391000892B911003C00E94ED10C0CFE1E09E12F0
:10392000FACF22FFBBCF981709F4B8CF8093580283
:10393000B5CF911006C00E9450098C2D0E94E61050
:10394000ADCFF1E09F1609F4A9CFF5CFDD2031F01E
:1039500025E0291508F4A2CF8C2DDDCF34E03915F0
:1039600008F49CCFEACF992041F389E3881209C07B
:103970009FEFE7EEF3E09150E040F040E1F700C048
:103980000000802F0E94E11789CF812F86958695B0
:10399000837061F0813009F081CFC8019370D1103C
:1039A00002C090E080E00E94530578CFC801937078
:1039B000D11002C090E080E00E9469056FCF802F97
:1039C000DD2029F00E94F7060E94E91367CF0E94CC
:1039D0003C06FACF812F837009F066C0D1105ECF0C
:1039E000802F829586958770880F880F602F6F7063
:1039F000462E512C712C612C082E04C0440C551CF1
:103A0000661C771C0A94D2F740E050E0BA0104FF2C
:103A10000FC04FE050E060E070E004C0440F551F5D
:103A2000661F771F8A95D2F74095509560957095DF
:103A3000812F869586958370823019F1D8F4009194
:103A4000590210915A0220915B0230915C02813040
:103A500069F04429552966297729CB01BA016023E9
:103A60007123822393230E94B51418CF402A512A30
:103A7000622A732ACB01BA016429752986299729FC
:103A8000F2CF4429552966297729009159021091CE
:103A90005A0220915B0230915C02CB01BA0160278F
:103AA000712782279327DFCF8695DD2011F0812FA4
:103AB0008170882309F4F2CE802F829586958770D5
:103AC000880F880F602F6F70462E512C712C612C3F
:103AD000082E04C0440C551C661C771C0A94D2F7AF
:103AE00040E050E0BA0104FF0FC04FE050E060E05A
:103AF00070E004C0440F551F661F771F8A95D2F7E8
:103B00004095509560957095812F86958695837028
:103B1000823019F1D8F40091980210919902209105
:103B20009A0230919B02813069F044295529662917
:103B30007729CB01BA0160237123822393230E944A
:103B40002C14ACCE402A512A622A732ACB01BA0126
:103B50006429752986299729F2CF44295529662990
:103B60007729009198021091990220919A02309140
:103B70009B02CB01BA016027712782279327DFCFF1
:103B80001F70DD2029F0812F0E949314802FC3CE57
:103B9000802F0E94E610812F0E9437147FCE802F45
:103BA00022EF821609F43FC0281570F030EF83161B
:103BB000D1F091EF891691F0DD2009F46CC09110DD
:103BC00026CE812F8F7133C0E3EF8E1699F1F4EF7B
:103BD0008F12F2CF8091B90682FD3FC0812F8F7185
:103BE000DD20D1F224C0DD20C9F024E0291508F43D
:103BF00055CE1F7161E070E080E090E004C0660F78
:103C0000771F881F991F1A95D2F70091980210917B
:103C1000990220919A0230919B02ADCF35E039157F
:103C200008F43CCEE6CF812F8F71D110B5CF0E9422
:103C3000931434CE60E070E0CB01DD2009F47FCF37
:103C40001F7161E070E080E090E004C0660F771FB4
:103C5000881F991F1A95D2F772CFDD2089F01F7146
:103C6000812F0E9493148091B90682FF07C0E8E07B
:103C70001E9FC0011124836080933502812FD7CF0E
:103C800081E00E945B14F1E0F91508F007CE82E0B4
:103C90000E945B1403CE992059F0893309F071CE4C
:103CA0002FEF37EE83E0215030408040E1F767CEC0
:103CB000812F8F7171CF85E0DE01119601900D92F9
:103CC0008A95E1F7F701228189819A81211123CB1D
:103CD0000E94B009182F27CB0631FCE51F0741F5DC
:103CE0008091DE0169E2811165E38EEB91E00E9433
:103CF000F404D8CB0B352DE5120709F466CD68F432
:103D000001158CE5180709F402CD0F3D1C4509F09B
:103D100014CD0E9465120E94CB170D35EDE51E07EC
:103D200009F402CD08F453CD083A1D45A1F305CDA1
:103D30008091570282720D3C3CE5130709F4CBCC0D
:103D400008F068C0073CECE51E0709F4B0CCF0F5BC
:103D5000043C2CE5120709F49ECC48F5033C8CE5A5
:103D6000180709F0EACC8091A20680FF8CCC8E7FE8
:103D70008093A2066091A2067091A3068091A4068A
:103D80009091A5060E946F0F0E9486058091EE0417
:103D900081608093EE043FEF80E792E031508040F5
:103DA0009040E1F700C000000E94D30ADBCA053C46
:103DB0009CE5190709F476CC40E450E16AE470E12F
:103DC000063CECE51E0709F46ACCB7CC0A3CFCE5DE
:103DD0001F0709F476CC78F4083C3CE5130709F496
:103DE0006BCC43E350E166E270E1093C9CE51907C6
:103DF00009F455CCA2CC0B3CECE51E0709F466CCCB
:103E000044E550E166E670E10C3CFCE51F0709F46F
:103E100046CC93CC023D2CE5120709F46CCCA0F4FF
:103E20000F3C8CE5180709F45ECC08F459CC003D32
:103E3000ECE51E0709F45CCC6EE089E0013DFCE591
:103E40001F0709F452CC79CC053D2CE5120709F483
:103E500058CC68F4033D8CE5180709F44FCC61E0B9
:103E600088E1043D9CE5190709F412CC66CC063DB7
:103E7000ECE51E0709F448CC6AE285E20E35FDE563
:103E80001F0709F432CC59CC1F93CF93DF93809155
:103E90000202807F09F049C08091FF01882309F464
:103EA00044C080913402D09103026091FD01709171
:103EB000FE01A0910002B0910102C62FC72316E0B7
:103EC000D81799F190E0109711F0CF3F19F40196AF
:103ED0008770F6CF189F9001199F300D1124F901BA
:103EE000EC5FFD4F41814713F2CF40814613EFCF86
:103EF00042814111ECCF438154814A1B5B0B483C0A
:103F0000510528F7809102028F7080618093020230
:103F1000F901E75FFD4F80818F70806180838DEFB5
:103F200091E00E9475190E945D09DF91CF911F9168
:103F30000895A1E1B0E0EFE9FFE10C94332B8C018F
:103F400085E0F801DE011D9601900D928A95E1F75A
:103F5000F801E2808DEFA82E81E0B82E609100027A
:103F6000709101026115710509F426C19091FD015E
:103F70004091FE01892F84238F3F09F41DC12081C8
:103F80003181C380D480F090FF01F601E61BF70B6E
:103F9000FF2009F4DCC080910202582F507FE83CDA
:103FA000F10508F09FC051116BC0FE2C431314C0E3
:103FB000921312C0E11010C08F70806180930202D2
:103FC000C5010E94751980910202F80185838F2D29
:103FD0006196EAE00C944F2BC114D10429F0822F92
:103FE00083238F3F09F003C180E0F82FF170DF2EAB
:103FF00080FF3CC0809134024091030256E084135C
:1040000015C02D873E878D859E850E94A309292F87
:1040100022952F702230F0F0243018F59F70F1F0C7
:10402000F8019581907FD1F4D12C1EC090E0589F6B
:10403000F001599FF00D1124EC5FFD4F61813613A3
:1040400006C06081261303C06281E6120FC001968C
:104050008770D5CF9F7011F0882331F3805E883050
:1040600018F3C8010E947519FD2CB1CFEE2009F498
:10407000AECF80910202816080930202F12CA7CF23
:10408000431306C0921304C0F801EE2009F479C06E
:10409000C8010E941D0A882309F1EE20F9F08091E1
:1040A0000202803270F02091FD013091FE013887CC
:1040B0002F831986DB86CA868C87CE0107960E94DD
:1040C000751986E0F801ADEFB1E001900D928A9587
:1040D000E1F70E94441FFF24F39479CFC8010E94A6
:1040E0007519F9CF51110AC08DEF91E00E94751931
:1040F00086E0F50111928A95E9F7C0CF43130FC00E
:1041000092130DC0E1100BC0F8018583C8010E9415
:10411000751986E0F50111928A95E9F758CFC80123
:104120000E941D0A8823D1F2EE20C1F28091020282
:10413000803238F22091FD013091FE013A832983CB
:104140001B82DD82CC828E83CE010196B8CFE83C03
:10415000F105F8F6FE2CEE2009F243131FC092136E
:104160001DC08091020280FD10C0982F907F69F0E1
:10417000F8018583903F31F0982F907F905F8F708A
:10418000892B8583C8010E94751986E0F801ADEF7F
:10419000B1E001900D928A95E1F719CFC8010E9414
:1041A0001D0A81118ECF80910202816080930202EC
:1041B000C8010E9475190BCFEE2009F48FCFC801FA
:1041C0000E941D0AF82E882309F488CF86E0F801A2
:1041D000ADEFB1E001900D928A95E1F78091FD017C
:1041E0009091FE010E94A3090E94441FF0CE81E03D
:1041F0008E25FBCEA7E1B0E0E0E0F1E20C943A2B93
:104200004B8B5C8B6D8B7E8B8F8B6111109256026A
:104210001A8A198A85E0FE017396DE011D960190C7
:104220000D928A95E1F786E0FE013D96DE01179634
:1042300001900D928A95E1F7CE0107960E94991F91
:10424000882359F016E0809134029091030289137B
:1042500043C06796E3E00C94562B86E0FE01379648
:10426000DE01119601900D928A95E1F78A859B8572
:10427000892B41F38F81988589238F3F19F32091F2
:10428000030230E0C90101968770992740913402FA
:104290004817190671F40E94C0141092030210927C
:1042A000340286E0EDEFF1E0DF011D928A95E9F737
:1042B000C9CF96E0929FD001939FB00D1124AC5FBF
:1042C000BD4FFE01319601900D929A95E1F78093D2
:1042D00003020E945D09B6CF819FC00111248C5F4B
:1042E0009D4F0E94991F882309F4B3CF8091340217
:1042F00090E001968770992780933402A4CFACE0B8
:10430000B0E0E5E8F1E20C94302B8E010F5F1F4F17
:1043100088E0D8011D928A95E9F78FE7C82E81E0E1
:10432000D82EF12CE12CAA24A394B12C29E8822EBA
:1043300021E0922EF60181916F018F3F09F442C076
:10434000F894E82FE295EF70F0E021A18F70A501BD
:1043500002C0440F551F8A95E2F7CA01922F982B8D
:1043600091A392A18095892382A3789400C0E3E869
:10437000F1E0712C31E021912F3F09F46EC0A22FA2
:10438000A295AF70B0E090968C9190E02F7002C033
:10439000959587952A95E2F780FD5FC0832F782A4F
:1043A000330F8E169F0639F7F601319780818F3FC4
:1043B00011F00E94530750EA5A95F1F7F801EE0DFB
:1043C000FF1D70828FEFE81AF80A94E0E916F104F5
:1043D00009F0B0CF48E050E0B8018EE892E00E94CA
:1043E0000E2C7C01892B41F088E0F801AEE8B2E0A8
:1043F00001900D928A95E1F710919702E114F10472
:1044000071F181E080935F020E94DD1390935E0260
:1044100080935D0280915D0290915E020E94CE13B6
:104420000A9790F0E12FF0E0E356FD4F80918E0265
:10443000808380918F02818380919002828380911A
:104440009102838310925F0281E090E0E114F10415
:1044500051F02C96EDE00C944C2B80E0A0CF809195
:104460005F028111D7CF0E94EB0DF82EE0919702E9
:10447000882309F476C019861A861B861C860E2F9F
:1044800010E003561D4F809189028A30A0F54CEB55
:1044900051E1BE01675F7F4FC8010E94B80D8823BC
:1044A000C9F145E051E1BE01675F7F4FC8010E943D
:1044B000B80D882379F14BE551E1BE01675F7F4F6D
:1044C000C8010E94B80D882329F1109289028091B9
:1044D000960290E044E050E0BE01675F7F4F835654
:1044E0009D4F0E940E2C21E020936602892B59F5E6
:1044F000F12C8F2DAECF80916002909161020E94CD
:10450000CE13843F914018F680916602811112C04B
:1045100080E09FCF809189028F3F29F08F5F809349
:1045200089028A30A0F20E94DD1390936102809389
:104530006002EACFFE01399684E0DF011D928A9580
:10454000E9F710926602E0919602F0E0E356FD4F23
:1045500089859A85AB85BC8580839183A283B3834B
:10456000C8CFF0E0E356FD4F84E0A5E7B2E001904C
:104570000D928A95E1F785E792E00E9438038093D7
:104580007402C0907902D0907A02E0907B02F090A1
:104590007C028091620290916302A0916402B091CA
:1045A0006502C816D906EA06FB06D1F0C09262027F
:1045B000D0926302E0926402F09265020E94EB0DD9
:1045C00081110EC00E94E804C61AD70AE80AF90A47
:1045D000C0928A02D0928B02E0928C02F0928D02FD
:1045E00080918402882309F493CF80FF0DC08091CD
:1045F0007D029091A20680FF28C091609093A20650
:1046000060E086950E9410198091840281FF09C0A4
:1046100020E04091800260917F0280917E020E94A2
:10462000820F8091840282FF06C0809183028823DA
:1046300011F10E94F5188091840283FF03C081E08C
:104640008093E9041092840263CF9E7F9093A20628
:104650000E9486058091EE0481608093EE04BFEF96
:10466000E0E7F2E0B150E040F040E1F700C00000C8
:104670000E94D30AC9CF0E948605DDCF1F921FB6C4
:104680001F9211248F939F93AF93BF938091B30692
:10469000811113C08091B4069091B506A091B60621
:1046A000B091B7064196A11DB11D8093B4069093B9
:1046B000B506A093B606B093B706BF91AF919F9190
:1046C0008F911F901FBE1F901895CDB7DEB76297D0
:1046D0000FB6F894DEBF0FBECDBF85B7806885BF2B
:1046E00085B7806885BF84B7877F84BF0FB6F8948D
:1046F000A8958091600088618093600010926000AE
:104700000FBE80E890E00FB6F8948093610090931C
:1047100061000FBE81E597E09093BD018093BC01DD
:104720000E944F030E941A048091E20084608093EB
:10473000E20078948091E2068823A1F01091E900CC
:104740001F709091EC00892F817090FD80E8182BEC
:104750001092E9008091E80083FD0E94D6141F703A
:104760001093E90082E084BD93E095BD9AEF97BD78
:1047700080936E0010928A0210928B0210928C022B
:1047800010928D020E94EB0D8093240180912401F0
:10479000882309F476C0109246018BE1809347018B
:1047A0000E94EB0D81110E94B52980912401809116
:1047B000240194E0811190E09093970284E0891B9A
:1047C0008093960284E90E94530786E60E9453076D
:1047D00087E90E94530786EC0E94530703E811E023
:1047E00049E8E42E41E0F42ED8018D918D018F3FF0
:1047F00011F00E945307E016F106B1F788E0EDE9E9
:10480000F2E0DF01282F1D922A95E9F7EEE8F2E0A9
:10481000DF011D928A95E9F790E080E00E94322C3A
:10482000883E9E4F11F00E94651282E090E00E9447
:10483000242C8093A5020E94F7109093B9068093D0
:10484000B8060E947F21EFEFF9EF20E0E150F04041
:104850002040E1F700C000000E947F210E94EB0D84
:10486000E4E08111E0E0F0E0E356FD4F808181FF5C
:104870000CC06FEF7FEF90E080E00E94562C0E940A
:10488000D7048BE18093460189CF83E090E00E94BA
:10489000242C682F70E090E080E00E94B514109204
:1048A000D20480E88093B1020E946C286DE070E031
:1048B0008FE992E00E94390E892BC9F58091D204CC
:1048C00063E070E081FD41C28CE992E00E94390E04
:1048D000892B69F56DE070E08CE892E00E94390E5A
:1048E000892B29F50E94E804605A75418F4F9F4F2C
:1048F0006093A7067093A8068093A9069093AA06D2
:10490000E2EDF2E080E092E0DF019C011D92215097
:104910003040E1F78FEF9FEF9093D5048093D4045C
:1049200081E08093AC068093AB061092D304809113
:104930009C0281113BC090E080E00E94322C883EB6
:104940009E4F21F00E9465120E94781088E090E04E
:104950000E942C2C6093A2067093A3068093A40659
:104960009093A5068091EE0483608093EE046E7FA1
:1049700071F40E94781088E090E00E942C2C6093E3
:10498000A2067093A3068093A4069093A5060E94A6
:104990008D050E9486058091A20680FF04C060E01C
:1049A00086950E94101981E080939C020E94EB0D75
:1049B000811102C00E94B82985E291E09093B0066F
:1049C0008093AF0638E1832E912C8091E20600E1BE
:1049D00012E1853009F4F4C10E947F21D82E8111A3
:1049E0000E94E804ADE9B2E0E6EAF2E010E000E09F
:1049F000B02EED9081918E1509F4F1C18E25C12C58
:104A0000FF24F3949F2D982309F4E4C10E94EB0D39
:104A1000882399F0CF82B886EF2081E009F480E006
:104A200089870E94DD138160782F9B878A874F8159
:104A3000588569858B850E94FA20F801EA55FD4F5B
:104A40008081F826F0820E94EB0D8091ED0488238E
:104A500009F464C08091EC04E091A206E695E81B9D
:104A6000E093E804823009F0D1C1F0E0E354FD4F57
:104A7000E4910E2F10E024EAE22E2DE0F22E809138
:104A8000E904882361F01092E9040E94EA189093E7
:104A9000E7048093E6041092EB041092EA040E946B
:104AA000EA18E091E604F091E7049C012E1B3F0B0D
:104AB0002F3F3F4798F52091B0022223B1F010928A
:104AC000B0022091AE023091AF02821B930B8F3F58
:104AD0009F4758F4205D3A483093AF022093AE02CE
:104AE0008091EE0488608093EE04A090EA04B09078
:104AF000EB04E00FF11FF093E704E093E60486EE89
:104B000094E0F70109958091EA049091EB04892BD8
:104B100029F4AB2819F081E08093B0028091AC06B3
:104B20008823A9F18091D6049091D7040E94CE13D6
:104B3000C29730F00E94DD139093D7048093D6047F
:104B40002091D4043091D5042115310539F080919C
:104B5000D30461E070E0882309F4C5C18091AB06FD
:104B60008823A9F00E94E8040091A7061091A806E6
:104B70002091A9063091AA06601B710B820B930B42
:104B80006F3F7F4F8F4F9F4710F40E94630ED110ED
:104B90000E947E0E86E0E0EEF4E0DE0111960190C8
:104BA0000D928A95E1F71092E2041092E3041092BC
:104BB000E4041092E5048B819C81892B09F44AC09E
:104BC0008091DE049091DF040E94CE139C019091AD
:104BD000DA04992309F47BC225313105D8F19F3FCE
:104BE00019F09F5F9093DA041B81112359F00E9402
:104BF000D7069FEF11160CF491E0899F802D1124A8
:104C00008093E2041C81112359F00E94D7069FEF84
:104C100011160CF491E0899F802D11248093E304F8
:104C20003091E2043323B1F02091E304222391F088
:104C300045EB3403C0011124992309F41DC290935C
:104C4000E20445EB240390011124332309F418C234
:104C50003093E3048D819E81892B09F44AC08091B1
:104C6000DC049091DD040E94CE139C019091D90444
:104C7000992309F427C221353105D8F19F3F19F056
:104C80009F5F9093D9041D81112359F00E94B506AE
:104C90009FEF11160CF491E0899F802D11248093D1
:104CA000E4041E81112359F00E94B5069FEF1116EE
:104CB0000CF491E0899F802D11248093E5043091BC
:104CC000E4043323B1F02091E504222391F045EB75
:104CD0003403C0011124992309F4D6C19093E4044C
:104CE00045EB240390011124332309F4D1C13093FF
:104CF000E50446E050E0BE016F5F7F4F80EE94E038
:104D00000E940E2C892B61F48091E2049091E304BF
:104D1000892B9091E404892B9091E504892B11F063
:104D20000E94E91386E0FE013196A0EEB4E0019006
:104D30000D928A95E1F70E940E0E9091D804891782
:104D400009F443CE8093D80440CE89E992E0BECDE9
:104D50008091E206843021F10E94630E1092B30626
:104D600040E40FB6F894A895809260000FBE40937F
:104D7000600083B7817F846083BF83B7816083BF16
:104D80007894889583B78E7F83BF0FB6F894A895E3
:104D900080916000886180936000109260000FBE77
:104DA0008091E106882361F00E947F21EDE9F2E025
:104DB0008191811171C185EA92E08E179F07C1F739
:104DC0008091E206853009F4C3CF0E94C0140E948E
:104DD0000E0E02CEC394FF0C96E0C91213CE0F5FE5
:104DE0001F4F0830110509F003CE8FEF8C878D8798
:104DF0001E860E94DD138160782F988B8F874C85EB
:104E00005D856E8588890E94FA201DCE863059F412
:104E1000F0E0E654FD4FE4910E2F10E094E9E92E06
:104E20009DE0F92E2CCE893061F4E695F0E0E9544E
:104E3000FD4FE4910E2F10E08DEEE82E8CE0F82E61
:104E40001ECE8F3061F4E695F0E0EC54FD4FE49116
:104E50000E2F10E0B2E6EB2EBCE0FB2E10CE85311B
:104E600059F4F0E0EF54FD4FE4910E2F10E0ADED5A
:104E7000EA2EABE0FA2E03CE08E210E07BE5E72E47
:104E80007BE0F72E883109F4FACD833249F4EFEA5A
:104E9000F2E005911491F3E4EF2EFDE0FF2EEFCD4B
:104EA00004EF11E06EE1E62E6BE0F62E843209F499
:104EB000E6CD00ED17E055E8E52E55E0F52E8532FC
:104EC00009F0DDCD8E2F63E00E94622BE92FF0E028
:104ED000E455FD4FE4910E2F10E0E6EAEE2EEEE0F1
:104EE000FE2ECDCD8F5F082F10E07B01082E02C073
:104EF000EE0CFF1C0A94E2F7A9014E215F21452B1D
:104F000089F39091D20490FD43C08295880F8076FA
:104F100080933301980136952795369527952093F0
:104F20003601815E809334011092370124E630E02F
:104F300047E050E061E371E088E70E940F29892B88
:104F400009F00CCEA80125E0440F551F2A95E1F782
:104F50008091D20480FD2AC04E525D4F04E610E0DD
:104F600020E230E060E488E70E943029892B09F0D4
:104F7000F5CD0E947E0EE094F0948091D40490913F
:104F8000D504E822F922F092D504E092D404E6CDCB
:104F9000880F880F880F8093330110923601895F44
:104FA0008093340183E080933701C0CFE2EBF2E0DD
:104FB00080E2DF011D928A95E9F7EDE8F1E0FA8BD6
:104FC000E98B09E811E091E9292E91E0392EA989B0
:104FD000BA892D91BA8BA98BF80141908F01440EAB
:104FE000552E511CC2018E529D4F2C01E22FF0E034
:104FF000EE54FD4F30E020E087E0682E621ACC24AA
:10500000C394022E01C0CC0C0A94EAF7520190E03E
:10501000D5018D915D018C21662D691B6770762EFF
:10502000062E000C770BB82F01C0BB0F7A94EAF75D
:105030007B2E7195619571096770772701C0869500
:105040006A95EAF7782A8081782A70829F5F983083
:10505000F9F62F5F3F4F31962830310569F6E9891F
:10506000FA892E163F0609F0B2CF04E610E020E2DE
:1050700030E042EB52E076CF81E08093E204E1CD74
:1050800081E08093E304E6CD81E08093E40428CEC0
:1050900081E08093E5042DCE09BD19BD09B400FE61
:1050A000FDCF8091D8008F7D8093D8008091E00063
:1050B00082608093E0008091E00081FDFCCF0E943F
:1050C000C0147ECE2B30310508F0DACD12CE2B3055
:1050D000310508F086CDBECD1092B9008CE08093EA
:1050E000B8000895B0E0A0E0E8E7F8E20C94322BB5
:1050F000B82EEB010E94DD136C01EE24E394F12C39
:10510000C431D10560F025E0E22EF12CCF3FDC0761
:1051100031F0CE0164E170E00E94172B7B0184EA3C
:10512000A82E94E8992E1092BC00A092BC000E9478
:10513000DD138C018091BC0087FF0DC08091B90008
:10514000887F883001F18091B900887F8031D9F063
:105150000FEF1FEF09C00E94DD13801B910B8E150E
:105160009F0540F30EEF1FEFCF3FDC07E1F2C601D2
:105170000E94CE138C179D07B0F2C801CDB7DEB7E1
:10518000EBE00C944E2BB092BB009092BC000E94BE
:10519000DD138C018091BC0087FF0AC08091B900AB
:1051A000887F883111F0803499F610E000E0E5CF77
:1051B0000E94DD13801B910B8E159F0558F3D2CFF3
:1051C0000F931F93CF93DF93EB018093BB0084E891
:1051D0008093BC000E94DD138C018091BC0087FF8E
:1051E00011C02091B900287F81E090E0283211F4AD
:1051F00090E080E0919581959109DF91CF911F9189
:105200000F910895CF3FDC0741F30E94DD13801B0F
:10521000910B8C179D0708F38EEF9FEFEECFB0E058
:10522000A0E0E5E1F9E20C94352B6B018A017901EC
:10523000B9010E947228E6010C0D1D1DC017D1078F
:1052400011F097FF08C024E92093BC00CDB7DEB76A
:10525000E8E00C94512BB70189910E94E028EECF31
:10526000B0E0A0E0E6E3F9E20C94352BC62F6A012A
:105270007901B8010E94722897FD0CC0B8018C2FEB
:105280000E94E028E601EC0CFD1CCE15DF0511F0B4
:1052900097FF08C024E92093BC00CDB7DEB7E8E053
:1052A0000C94512BB80189910E94E028EECF84E93B
:1052B0008093BC0008958EE14A9B02C08150E1F7C3
:1052C0004A9BFECF08955A9880E28A95F1F75A9A40
:1052D0000895FC013BE03A95F1F798E020E080E08A
:1052E00031E040E14A95F1F7880F4A9B02C08160A6
:1052F000232742E04A95F1F7000040E14A95F1F793
:10530000915079F790E19A95F1F799B132E03A9599
:10531000F1F7000040E14A95F1F792FB992790F9E7
:1053200092272081920F90830895A1E0B0E0EBE9ED
:10533000F9E20C94372B19828C017C01E60EF11CEA
:105340000E151F0541F481E09981911180E02196AD
:10535000E6E00C94532B0E945B29CE0101960E943B
:105360006929F80181938F01EBCF529A5A9A0895D7
:1053700052985A9AEA9AE9E6F0E080818F7C80831D
:1053800008956150770B91E001C0990F6A95EAF793
:1053900020E031E0911108C0222391F05A9A80E276
:1053A0008A95F1F75A980895492F482339F05A9A67
:1053B000232740E24A95F1F79695ECCF5A98F9CF1A
:1053C0005A98EDCFFF920F931F93CF93DF93EC0189
:1053D0008C01060F111DC017D10729F4CDB7DEB718
:1053E000E5E00C94542BF9900E94632968E08F2D1E
:1053F0000E94C129F0CF1F920F920FB60F92112475
:105400000F931F932F933F934F935F936F937F93CC
:105410008F939F93AF93BF93EF93FF93CF93DF93BC
:105420000F92CDB7DEB719820E945B29CE0101969B
:105430000E946929082F069506950695282F229522
:105440002570902F9570290F922F93702695269591
:10545000920F982797708981982B09F05CC00530CE
:1054600008F059C080E18A95F1F75A9A529A82E081
:105470008A95F1F700C05A9888E0089F80011124AE
:10548000D801AC5FBE4F1696ED91FC9117973097FF
:10549000A9F060917D0170917E0114962D913C914F
:1054A0001597260F371F11968D919C911297680FB3
:1054B000791F13964C9113978C910995F801EC5F25
:1054C000FE4F6381662351F020917D0130917E0172
:1054D00084819581820F931F0E94E2290E94632993
:1054E00080E18A95F1F75A9852985A9A80E18A9504
:1054F000F1F7F801EC5FFE4F6081662351F02091D7
:105500007D0130917E0181819281820F931F0E94E3
:1055100095290E945B290F90DF91CF91FF91EF9128
:10552000BF91AF919F918F917F916F915F914F91BB
:105530003F912F911F910F910F900FBE0F901F90D1
:1055400018950F931F93CF93DF93EC0105970CF001
:105550004CC0F894529A5A9885E08A95F1F7000069
:105560009C2F969595708C2F8570980F892F83703E
:105570009695969523E0CC0FDD1F2A95E1F7980FBD
:105580008E01092B0E94632900C068E0802F0E94D1
:10559000C12980E18A95F1F752985A9A4A9B1EC018
:1055A00087E090E04A991CC0FE01EC5FFE4F6381EA
:1055B0006623F9F020917D0130917E0184819581EF
:1055C000820F931F0E949529811113C0529A5A9AF3
:1055D0007894DF91CF911F910F91089500C0DECF95
:1055E000019729F4529A5A9A789480E0F2CF00C039
:1055F000D9CF0E945B2980E28A95F1F75A98529A96
:1056000080E18A95F1F7CC5FDE4F6881662351F027
:1056100020917D0130917E0189819A81820F931FB3
:105620000E94E2290E946329789481E0D2CFAA1BCC
:10563000BB1B51E107C0AA1FBB1FA617B70710F07D
:10564000A61BB70B881F991F5A95A9F780959095AF
:10565000BC01CD0108952F923F924F925F926F92BD
:105660007F928F929F92AF92BF92CF92DF92EF92F2
:10567000FF920F931F93CF93DF93CDB7DEB7CA1B73
:10568000DB0B0FB6F894DEBF0FBECDBF09942A889E
:10569000398848885F846E847D848C849B84AA8446
:1056A000B984C884DF80EE80FD800C811B81AA81D3
:1056B000B981CE0FD11D0FB6F894DEBF0FBECDBF9E
:1056C000ED010895991B79E004C0991F961708F021
:1056D000961B881F7A95C9F78095089587FB082E39
:1056E000062687FD819567FD61950E94622B0EF469
:1056F000919507FC8195089597FB072E16F4009469
:1057000007D077FD09D00E94172B07FC05D03EF487
:10571000909581959F4F0895709561957F4F08955D
:10572000EE0FFF1F0590F491E02D09940E94C02C0C
:10573000332312F48A1B9B0B0C94A02B0E94C02CC9
:10574000B7FF0895821B930B08958F929F92AF929B
:10575000BF92CF92DF92EF92FF92CF93DF93EC0153
:10576000688179818A819B81611571058105910527
:1057700021F464E279ED8BE597E02DE133EF41E030
:1057800050E00E946C2C49015A019B01AC01A7EA30
:10579000B1E40E948B2C6B017C01ACEEB4EFA5014F
:1057A00094010E94992CDC01CB018C0D9D1DAE1D36
:1057B000BF1DB7FF03C00197A109B0488883998333
:1057C000AA83BB839F77DF91CF91FF90EF90DF900B
:1057D000CF90BF90AF909F908F9008950E94A52B7F
:1057E000089580E091E00E94A52B0895B0E0A0E02C
:1057F0008093000190930101A0930201B0930301F3
:105800000895FC014150504030F001900616D1F748
:105810003197CF010895882799270895FB01DC016E
:1058200004C08D910190801921F441505040C8F777
:10583000881B990B0895FB01DC0102C001900D92B9
:1058400041505040D8F70895F999FECF92BD81BDDF
:10585000F89A992780B50895A6E1B0E044E050E0B9
:105860000C945E2CA8E1B0E042E050E00C945E2C79
:10587000262FF999FECF92BD81BDF89A019700B409
:10588000021639F01FBA20BD0FB6F894FA9AF99AA9
:105890000FBE08950396272F0E94392C0E94382CA2
:1058A000252F0E94392C242F0C94392C0196272F58
:1058B0000E94392C0C94382CDC01CB01FC01F999A5
:1058C000FECF06C0F2BDE1BDF89A319600B40D924C
:1058D00041505040B8F70895052E97FB1EF40094F0
:1058E0000E94832C57FD07D00E949E2C07FC03D0FA
:1058F0004EF40C94832C50954095309521953F4F54
:105900004F4F5F4F089590958095709561957F4FAB
:105910008F4F9F4F08950E94C02CA59F900DB49F5C
:10592000900DA49F800D911D11240895B7FF0C9434
:105930008B2C0E948B2C821B930B0895A1E21A2EB4
:10594000AA1BBB1BFD010DC0AA1FBB1FEE1FFF1F23
:10595000A217B307E407F50720F0A21BB30BE40B73
:10596000F50B661F771F881F991F1A9469F76095BA
:105970007095809590959B01AC01BD01CF01089574
:10598000A29FB001B39FC001A39F700D811D112480
:10599000911DB29F700D811D1124911D0895F894E1
:1059A000FFCFB515DD157517DD15751710163116F6
:1059B00075172E173B17EE1BEE1B261C261CC51C4D
:0E59C000DF1C4E1C4E1CEA1CC01DCF1DCF1D4F
:1059CE0001000000000000010000000000000004C3
:1059DE00010000000405000000000000080900009E
:1059EE000000000001D404930A720A6D0A680AD3FB
:1059FE00040021007F22000301191A1B1C1D1E1F0B
:105A0E00202122010201003600363601818283E216
:105A1E0000E900EA00B500B600B700CD008301CC66
:105A2E00008A0192019401210223022402250226FA
:105A3E000227022A02B300B4006F007000740294B1
:105A4E006697C6F4F5F6F7313300081018181008EB
:105A5E0000000102020202060606090909090909E7
:105A6E000F0F0F0F0F0F15151518191919191919E1
:0C5A7E0019191919232425252525252593
:00000001FF
